{
  "contractName": "subsidy",
  "abi": [
    {
      "inputs": [
        {
          "internalType": "uint8",
          "name": "_number",
          "type": "uint8"
        },
        {
          "internalType": "uint8",
          "name": "_operator",
          "type": "uint8"
        },
        {
          "internalType": "uint16",
          "name": "_year",
          "type": "uint16"
        },
        {
          "internalType": "uint8",
          "name": "_month",
          "type": "uint8"
        },
        {
          "internalType": "uint8",
          "name": "_day",
          "type": "uint8"
        },
        {
          "internalType": "uint16",
          "name": "_time",
          "type": "uint16"
        },
        {
          "internalType": "uint16",
          "name": "_people",
          "type": "uint16"
        },
        {
          "internalType": "string",
          "name": "_plate",
          "type": "string"
        }
      ],
      "name": "operate",
      "outputs": [],
      "stateMutability": "nonpayable",
      "type": "function"
    },
    {
      "inputs": [
        {
          "internalType": "uint16",
          "name": "_money_all",
          "type": "uint16"
        },
        {
          "internalType": "uint32",
          "name": "_mileage",
          "type": "uint32"
        },
        {
          "internalType": "uint16",
          "name": "_year_of_season",
          "type": "uint16"
        },
        {
          "internalType": "uint8",
          "name": "_season",
          "type": "uint8"
        },
        {
          "internalType": "uint16",
          "name": "_disable",
          "type": "uint16"
        },
        {
          "internalType": "uint16",
          "name": "_disable_actual",
          "type": "uint16"
        },
        {
          "internalType": "uint16",
          "name": "_elder",
          "type": "uint16"
        },
        {
          "internalType": "uint16",
          "name": "_elder_actual",
          "type": "uint16"
        }
      ],
      "name": "money",
      "outputs": [],
      "stateMutability": "nonpayable",
      "type": "function"
    },
    {
      "inputs": [
        {
          "internalType": "uint16",
          "name": "_data_year_of_season",
          "type": "uint16"
        },
        {
          "internalType": "uint8",
          "name": "_data_season",
          "type": "uint8"
        },
        {
          "internalType": "uint8",
          "name": "_data_operator",
          "type": "uint8"
        },
        {
          "internalType": "bytes32",
          "name": "_hash",
          "type": "bytes32"
        }
      ],
      "name": "data",
      "outputs": [],
      "stateMutability": "nonpayable",
      "type": "function"
    },
    {
      "inputs": [
        {
          "internalType": "uint16",
          "name": "year",
          "type": "uint16"
        },
        {
          "internalType": "uint8",
          "name": "season",
          "type": "uint8"
        },
        {
          "internalType": "uint8",
          "name": "number",
          "type": "uint8"
        },
        {
          "internalType": "uint8",
          "name": "operator",
          "type": "uint8"
        }
      ],
      "name": "subsidyMotc",
      "outputs": [
        {
          "internalType": "uint32",
          "name": "",
          "type": "uint32"
        },
        {
          "internalType": "uint32",
          "name": "",
          "type": "uint32"
        },
        {
          "internalType": "uint16",
          "name": "",
          "type": "uint16"
        }
      ],
      "stateMutability": "view",
      "type": "function",
      "constant": true
    },
    {
      "inputs": [
        {
          "internalType": "uint16",
          "name": "year",
          "type": "uint16"
        },
        {
          "internalType": "uint8",
          "name": "month",
          "type": "uint8"
        },
        {
          "internalType": "uint8",
          "name": "number",
          "type": "uint8"
        },
        {
          "internalType": "uint8",
          "name": "operator",
          "type": "uint8"
        }
      ],
      "name": "subsidyPt",
      "outputs": [
        {
          "internalType": "uint32",
          "name": "",
          "type": "uint32"
        },
        {
          "internalType": "uint32",
          "name": "",
          "type": "uint32"
        },
        {
          "internalType": "uint32",
          "name": "",
          "type": "uint32"
        },
        {
          "internalType": "uint32",
          "name": "",
          "type": "uint32"
        }
      ],
      "stateMutability": "view",
      "type": "function",
      "constant": true
    },
    {
      "inputs": [
        {
          "internalType": "uint16",
          "name": "year",
          "type": "uint16"
        },
        {
          "internalType": "uint8",
          "name": "month",
          "type": "uint8"
        },
        {
          "internalType": "uint8",
          "name": "data_operator",
          "type": "uint8"
        },
        {
          "internalType": "bytes32",
          "name": "data_hash",
          "type": "bytes32"
        }
      ],
      "name": "find_hash",
      "outputs": [
        {
          "internalType": "uint8",
          "name": "",
          "type": "uint8"
        }
      ],
      "stateMutability": "view",
      "type": "function",
      "constant": true
    }
  ],
  "bytecode": "0x60806040526000600360006101000a81548161ffff021916908361ffff1602179055506000600360026101000a81548161ffff021916908361ffff1602179055506000600360046101000a81548161ffff021916908361ffff16021790555034801561006a57600080fd5b506112d18061007a6000396000f3fe608060405234801561001057600080fd5b50600436106100625760003560e01c8063783252b414610067578063cafae2871461009a578063ce650b40146100b6578063e1476cdb146100d2578063e629ab6314610102578063f182eda81461011e575b600080fd5b610081600480360381019061007c9190610d7b565b610150565b6040516100919493929190610f0c565b60405180910390f35b6100b460048036038101906100af9190610c66565b610449565b005b6100d060048036038101906100cb9190610d18565b6105b2565b005b6100ec60048036038101906100e79190610d18565b61067f565b6040516100f99190610f51565b60405180910390f35b61011c60048036038101906101179190610dde565b610799565b005b61013860048036038101906101339190610d7b565b6108f1565b60405161014793929190610ed5565b60405180910390f35b60008060008060008060008060005b600360009054906101000a900461ffff1661ffff168161ffff16101561042d576000808261ffff16815260200190815260200160002060000160019054906101000a900460ff1660ff168a60ff16141561041a576000808261ffff16815260200190815260200160002060000160029054906101000a900461ffff1661ffff168d61ffff161415610419576000808261ffff16815260200190815260200160002060000160049054906101000a900460ff1660ff168c60ff16141561041857600160008261ffff168152602001908152602001600020600001600b9054906101000a900461ffff1661ffff16600160008361ffff16815260200190815260200160002060000160099054906101000a900461ffff1661ffff16856102839190611005565b61028d91906110ae565b9350600160008261ffff168152602001908152602001600020600001600f9054906101000a900461ffff1661ffff16600160008361ffff168152602001908152602001600020600001600d9054906101000a900461ffff1661ffff16836102f49190611005565b6102fe91906110ae565b91506000808261ffff16815260200190815260200160002060000160009054906101000a900460ff1660ff168b60ff16141561041757600160008261ffff168152602001908152602001600020600001600b9054906101000a900461ffff1661ffff16600160008361ffff16815260200190815260200160002060000160099054906101000a900461ffff1661ffff16866103999190611005565b6103a391906110ae565b9450600160008261ffff168152602001908152602001600020600001600f9054906101000a900461ffff1661ffff16600160008361ffff168152602001908152602001600020600001600d9054906101000a900461ffff1661ffff168461040a9190611005565b61041491906110ae565b92505b5b5b5b808061042590611158565b91505061015f565b5083838383975097509750975050505050945094509450949050565b600060016000600360029054906101000a900461ffff1661ffff1681526020019081526020016000209050888160000160006101000a81548161ffff021916908361ffff160217905550878160000160026101000a81548163ffffffff021916908363ffffffff160217905550868160000160066101000a81548161ffff021916908361ffff160217905550858160000160086101000a81548160ff021916908360ff1602179055508281600001600d6101000a81548161ffff021916908361ffff1602179055508181600001600f6101000a81548161ffff021916908361ffff160217905550848160000160096101000a81548161ffff021916908361ffff1602179055508381600001600b6101000a81548161ffff021916908361ffff1602179055506001600360029054906101000a900461ffff1661058b9190610fcd565b600360026101000a81548161ffff021916908361ffff160217905550505050505050505050565b600060026000600360049054906101000a900461ffff1661ffff1681526020019081526020016000209050848160000160006101000a81548161ffff021916908361ffff160217905550838160000160026101000a81548160ff021916908360ff160217905550828160000160036101000a81548160ff021916908360ff1602179055508181600101819055506001600360049054906101000a900461ffff1661065c9190610fcd565b600360046101000a81548161ffff021916908361ffff1602179055505050505050565b600080600090505b600360049054906101000a900461ffff1661ffff168161ffff16101561078b57600260008261ffff16815260200190815260200160002060000160009054906101000a900461ffff1661ffff168661ffff16141561077857600260008261ffff16815260200190815260200160002060000160029054906101000a900460ff1660ff168560ff16141561077757600260008261ffff16815260200190815260200160002060000160039054906101000a900460ff1660ff168460ff16141561077657600260008261ffff16815260200190815260200160002060010154831415610775576001915050610791565b5b5b5b808061078390611158565b915050610687565b50600090505b949350505050565b6000806000600360009054906101000a900461ffff1661ffff1681526020019081526020016000209050888160000160006101000a81548160ff021916908360ff160217905550878160000160016101000a81548160ff021916908360ff160217905550868160000160026101000a81548161ffff021916908361ffff160217905550858160000160046101000a81548160ff021916908360ff160217905550848160000160056101000a81548160ff021916908360ff160217905550838160000160066101000a81548161ffff021916908361ffff160217905550828160000160086101000a81548161ffff021916908361ffff160217905550818160010190805190602001906108ac929190610b07565b506001600360009054906101000a900461ffff166108ca9190610fcd565b600360006101000a81548161ffff021916908361ffff160217905550505050505050505050565b6000806000806000905060008060008060005b600360009054906101000a900461ffff1661ffff168161ffff161015610ab7576000808261ffff16815260200190815260200160002060000160019054906101000a900460ff1660ff168a60ff161415610aa457600160008261ffff16815260200190815260200160002060000160069054906101000a900461ffff1661ffff168d61ffff161415610aa357600160008261ffff16815260200190815260200160002060000160089054906101000a900460ff1660ff168c60ff161415610aa2576000808261ffff16815260200190815260200160002060000160009054906101000a900460ff1660ff168b60ff161415610aa157600160008261ffff16815260200190815260200160002060000160029054906101000a900463ffffffff1683610a2f9190611005565b9250600160008261ffff16815260200190815260200160002060000160009054906101000a900461ffff1661ffff1684610a699190611005565b93506000808261ffff16815260200190815260200160002060000160089054906101000a900461ffff1682610a9e9190610fcd565b91505b5b5b5b8080610aaf90611158565b915050610904565b506103e8601d83610ac89190611070565b610ad2919061103f565b93508284610ae091906110ae565b9450846103e883610af1919061103f565b8297509750975050505050509450945094915050565b828054610b1390611126565b90600052602060002090601f016020900481019282610b355760008555610b7c565b82601f10610b4e57805160ff1916838001178555610b7c565b82800160010185558215610b7c579182015b82811115610b7b578251825591602001919060010190610b60565b5b509050610b899190610b8d565b5090565b5b80821115610ba6576000816000905550600101610b8e565b5090565b6000610bbd610bb884610f9d565b610f6c565b905082815260208101848484011115610bd557600080fd5b610be0848285611117565b509392505050565b600081359050610bf78161123f565b92915050565b600082601f830112610c0e57600080fd5b8135610c1e848260208601610baa565b91505092915050565b600081359050610c3681611256565b92915050565b600081359050610c4b8161126d565b92915050565b600081359050610c6081611284565b92915050565b600080600080600080600080610100898b031215610c8357600080fd5b6000610c918b828c01610c27565b9850506020610ca28b828c01610c3c565b9750506040610cb38b828c01610c27565b9650506060610cc48b828c01610c51565b9550506080610cd58b828c01610c27565b94505060a0610ce68b828c01610c27565b93505060c0610cf78b828c01610c27565b92505060e0610d088b828c01610c27565b9150509295985092959890939650565b60008060008060808587031215610d2e57600080fd5b6000610d3c87828801610c27565b9450506020610d4d87828801610c51565b9350506040610d5e87828801610c51565b9250506060610d6f87828801610be8565b91505092959194509250565b60008060008060808587031215610d9157600080fd5b6000610d9f87828801610c27565b9450506020610db087828801610c51565b9350506040610dc187828801610c51565b9250506060610dd287828801610c51565b91505092959194509250565b600080600080600080600080610100898b031215610dfb57600080fd5b6000610e098b828c01610c51565b9850506020610e1a8b828c01610c51565b9750506040610e2b8b828c01610c27565b9650506060610e3c8b828c01610c51565b9550506080610e4d8b828c01610c51565b94505060a0610e5e8b828c01610c27565b93505060c0610e6f8b828c01610c27565b92505060e089013567ffffffffffffffff811115610e8c57600080fd5b610e988b828c01610bfd565b9150509295985092959890939650565b610eb1816110ec565b82525050565b610ec0816110fa565b82525050565b610ecf8161110a565b82525050565b6000606082019050610eea6000830186610eb7565b610ef76020830185610eb7565b610f046040830184610ea8565b949350505050565b6000608082019050610f216000830187610eb7565b610f2e6020830186610eb7565b610f3b6040830185610eb7565b610f486060830184610eb7565b95945050505050565b6000602082019050610f666000830184610ec6565b92915050565b6000604051905081810181811067ffffffffffffffff82111715610f9357610f92611210565b5b8060405250919050565b600067ffffffffffffffff821115610fb857610fb7611210565b5b601f19601f8301169050602081019050919050565b6000610fd8826110ec565b9150610fe3836110ec565b92508261ffff03821115610ffa57610ff9611183565b5b828201905092915050565b6000611010826110fa565b915061101b836110fa565b92508263ffffffff0382111561103457611033611183565b5b828201905092915050565b600061104a826110fa565b9150611055836110fa565b925082611065576110646111b2565b5b828204905092915050565b600061107b826110fa565b9150611086836110fa565b92508163ffffffff04831182151516156110a3576110a2611183565b5b828202905092915050565b60006110b9826110fa565b91506110c4836110fa565b9250828210156110d7576110d6611183565b5b828203905092915050565b6000819050919050565b600061ffff82169050919050565b600063ffffffff82169050919050565b600060ff82169050919050565b82818337600083830152505050565b6000600282049050600182168061113e57607f821691505b60208210811415611152576111516111e1565b5b50919050565b6000611163826110ec565b915061ffff82141561117857611177611183565b5b600182019050919050565b7f4e487b7100000000000000000000000000000000000000000000000000000000600052601160045260246000fd5b7f4e487b7100000000000000000000000000000000000000000000000000000000600052601260045260246000fd5b7f4e487b7100000000000000000000000000000000000000000000000000000000600052602260045260246000fd5b7f4e487b7100000000000000000000000000000000000000000000000000000000600052604160045260246000fd5b611248816110e2565b811461125357600080fd5b50565b61125f816110ec565b811461126a57600080fd5b50565b611276816110fa565b811461128157600080fd5b50565b61128d8161110a565b811461129857600080fd5b5056fea26469706673582212202ee5aa273bde428adafe5cc50fe5f9c95d3c3492a80c8d3d9e14c40103f200e164736f6c63430008000033",
  "immutableReferences": {},
  "source": "// SPDX-License-Identifier: MIT\r\npragma solidity >=0.8.0 <0.9.0;\r\npragma abicoder v2;\r\n//import \"./Ownable.sol\";\r\n\r\n//block.timestamp\r\n//2010\r\n\r\n///////////////////////\r\n//0908\r\n//0909\r\n//0912\r\n//0912\r\n//0914\r\n//0914function4\r\n//0914\r\n//0914subsidyMotc\r\n//0914subsidyMotc\r\n/////////////\r\n//0917\r\n//0917\r\n//091729\r\n//0917\r\n//0919\r\n//0919\r\n/////////////\r\n//0925hash\r\n\r\n//////////////////////\r\n//\r\n\r\n\r\n\r\n///////////////////\r\n// //stack too deep\r\n// //\r\n\r\n///////////////////////////////\r\n\r\n\r\n\r\n/////////bug////////////\r\n\r\n\r\ncontract subsidy{\r\n    struct operate_in{   //\r\n        uint8 _number;  //\r\n        uint8 _operator;  //\r\n        uint16 _year;    //   \r\n        uint8 _month;  //\r\n        uint8 _day;   //\r\n        uint16 _time; //\r\n        uint16 _people; //        \r\n        string _plate; //        \r\n    }\r\n\r\n    struct money_in{\r\n        uint16 _money_all;  //\r\n        uint32 _mileage;  //\r\n        uint16 _year_of_season; //        \r\n        uint8 _season; //\r\n        uint16 _disable;    //\r\n        uint16 _disable_actual; //\r\n        uint16 _elder;    //\r\n        uint16 _elder_actual; //\r\n\r\n    }\r\n\r\n    struct data_in{   //\r\n        uint16 _data_year_of_season; //\r\n        uint8 _data_season; //        \r\n        uint8 _data_operator;  //\r\n        bytes32  _hash;  //hash\r\n    }\r\n    \r\n    mapping (uint => operate_in) map_operate_in;\r\n    mapping (uint => money_in) map_money_in;\r\n    mapping (uint => data_in) map_data_in;\r\n    uint16 count_operate=0; //\r\n    uint16 count_money=0; //\r\n    uint16 count_data=0; //\r\n\r\n    function operate(uint8 _number, uint8 _operator, uint16 _year, uint8 _month, uint8 _day, uint16 _time, uint16 _people, string memory _plate) public {  //\r\n        operate_in storage c = map_operate_in[count_operate];  //slide\r\n        c._number=_number;\r\n        c._operator=_operator;\r\n        c._year=_year;\r\n        c._month=_month;\r\n        c._day=_day;\r\n        c._time=_time;            \r\n        c._people=_people;\r\n        c._plate=_plate;   \r\n        count_operate=count_operate+1; \r\n    }\r\n\r\n    function money(uint16 _money_all, uint32 _mileage, uint16 _year_of_season, uint8 _season, uint16 _disable, uint16 _disable_actual, uint16 _elder, uint16 _elder_actual) public {  //\r\n        money_in storage c = map_money_in[count_money];  //slide\r\n        c._money_all=_money_all;\r\n        c._mileage=_mileage;\r\n        c._year_of_season=_year_of_season;\r\n        c._season=_season;\r\n        c._elder=_elder;\r\n        c._elder_actual=_elder_actual;\r\n        c._disable=_disable;\r\n        c._disable_actual=_disable_actual;         \r\n        count_money=count_money+1;\r\n    }\r\n\r\n    function data(uint16 _data_year_of_season, uint8 _data_season, uint8 _data_operator, bytes32 _hash) public {  //\r\n        data_in storage c = map_data_in[count_data];  //slide\r\n        c._data_year_of_season=_data_year_of_season;\r\n        c._data_season=_data_season;\r\n        c._data_operator=_data_operator;\r\n        c._hash=_hash; \r\n        count_data=count_data+1;  \r\n    }\r\n\r\n    function subsidyMotc(uint16 year, uint8 season, uint8 number, uint8 operator) public view returns(uint32, uint32, uint16){ //\r\n        uint32 subsidys=0;   //\r\n        uint32 cost=0; //\r\n        uint32 revenue=0; // \r\n        uint32 mileage=0; //(*1000)\r\n        uint16 people=0;   //\r\n        //uint32 count=0;\r\n        for(uint16 i=0; i<count_operate; i++){  //()\r\n            if(operator==map_operate_in[i]._operator){ //\r\n                if(year==map_money_in[i]._year_of_season){ //\r\n                    if(season==map_money_in[i]._season){//\r\n                        if(number==map_operate_in[i]._number){//\r\n                            mileage=mileage+map_money_in[i]._mileage; //*()\r\n                            revenue=revenue+map_money_in[i]._money_all;//\r\n                            people=people+map_operate_in[i]._people;\r\n                        }\r\n                    }\r\n                }\r\n            }\r\n        }\r\n        cost=(mileage*29)/1000;//1000:\r\n        subsidys=cost-revenue;\r\n        return(subsidys, (mileage/1000), people);\r\n    }    \r\n\r\n\r\n    function subsidyPt(uint16 year, uint8 month, uint8 number, uint8 operator) public view returns(uint32, uint32, uint32, uint32){\r\n        //what:\r\n        uint32 disable_subsidy; //\r\n        uint32 disable_total_subsidy;   //\r\n        uint32 elder_subsidy; //\r\n        uint32 elder_total_subsidy;   //\r\n        for(uint16 j=0; j<count_operate; j++){//\r\n            if(operator==map_operate_in[j]._operator){ //\r\n                if(year==map_operate_in[j]._year){ //\r\n                    if(month==map_operate_in[j]._month){    //\r\n                        disable_total_subsidy=disable_total_subsidy+map_money_in[j]._disable-map_money_in[j]._disable_actual;  //\r\n                        elder_total_subsidy=elder_total_subsidy+map_money_in[j]._elder-map_money_in[j]._elder_actual;  //\r\n                        if(number==map_operate_in[j]._number){\r\n                            disable_subsidy=disable_subsidy+map_money_in[j]._disable-map_money_in[j]._disable_actual;  //\r\n                            elder_subsidy=elder_subsidy+map_money_in[j]._elder-map_money_in[j]._elder_actual;  //                          \r\n                        }\r\n                    }\r\n                }\r\n            }\r\n        }\r\n        return(disable_subsidy, disable_total_subsidy, elder_subsidy, elder_total_subsidy);\r\n    }\r\n\r\n    function find_hash(uint16 year, uint8 month, uint8 data_operator, bytes32 data_hash) public view returns(uint8){\r\n        for(uint16 i=0; i<count_data; i++){\r\n            if(year==map_data_in[i]._data_year_of_season){\r\n                if(month==map_data_in[i]._data_season){\r\n                    if(data_operator==map_data_in[i]._data_operator){\r\n                        if(data_hash==map_data_in[i]._hash)\r\n                            return(1);                            \r\n                    }\r\n                }\r\n            }\r\n        }\r\n        return(0);\r\n    }\r\n}",
  "sourcePath": "C:\\Users\\lmjhs\\Documents\\comp\\BC\\subsidy\\subsidy_git\\contracts\\subsidy.sol",
  "compiler": {
    "name": "solc",
    "version": "0.8.0+commit.c7dfd78e.Emscripten.clang"
  },
  "schemaVersion": "3.4.3",
  "updatedAt": "2021-10-04T02:19:01.131Z",
  "networkType": "ethereum",
  "devdoc": {
    "kind": "dev",
    "methods": {},
    "version": 1
  },
  "userdoc": {
    "kind": "user",
    "methods": {},
    "version": 1
  }
}