{
  "contractName": "subsidy",
  "abi": [
    {
      "inputs": [
        {
          "internalType": "uint8",
          "name": "_number",
          "type": "uint8"
        },
        {
          "internalType": "uint8",
          "name": "_operator",
          "type": "uint8"
        },
        {
          "internalType": "uint32",
          "name": "_mileage",
          "type": "uint32"
        },
        {
          "internalType": "string",
          "name": "_plate",
          "type": "string"
        },
        {
          "internalType": "string",
          "name": "_driver",
          "type": "string"
        },
        {
          "internalType": "uint16",
          "name": "_year",
          "type": "uint16"
        },
        {
          "internalType": "uint8",
          "name": "_month",
          "type": "uint8"
        },
        {
          "internalType": "uint8",
          "name": "_day",
          "type": "uint8"
        },
        {
          "internalType": "uint16",
          "name": "_time",
          "type": "uint16"
        }
      ],
      "name": "operate",
      "outputs": [],
      "stateMutability": "nonpayable",
      "type": "function"
    },
    {
      "inputs": [
        {
          "internalType": "uint16",
          "name": "_normal",
          "type": "uint16"
        },
        {
          "internalType": "uint16",
          "name": "_elder",
          "type": "uint16"
        },
        {
          "internalType": "uint16",
          "name": "_elder_actual",
          "type": "uint16"
        },
        {
          "internalType": "uint16",
          "name": "_disable",
          "type": "uint16"
        },
        {
          "internalType": "uint16",
          "name": "_disable_actual",
          "type": "uint16"
        }
      ],
      "name": "passenger",
      "outputs": [],
      "stateMutability": "nonpayable",
      "type": "function"
    },
    {
      "inputs": [
        {
          "internalType": "uint16",
          "name": "year",
          "type": "uint16"
        },
        {
          "internalType": "uint8",
          "name": "season",
          "type": "uint8"
        },
        {
          "internalType": "uint8",
          "name": "number",
          "type": "uint8"
        },
        {
          "internalType": "uint8",
          "name": "operator",
          "type": "uint8"
        }
      ],
      "name": "subsidy_motc",
      "outputs": [
        {
          "internalType": "uint32",
          "name": "",
          "type": "uint32"
        },
        {
          "internalType": "uint32",
          "name": "",
          "type": "uint32"
        }
      ],
      "stateMutability": "view",
      "type": "function",
      "constant": true
    },
    {
      "inputs": [
        {
          "internalType": "uint16",
          "name": "year",
          "type": "uint16"
        },
        {
          "internalType": "uint8",
          "name": "month",
          "type": "uint8"
        },
        {
          "internalType": "uint8",
          "name": "number",
          "type": "uint8"
        },
        {
          "internalType": "uint8",
          "name": "operator",
          "type": "uint8"
        }
      ],
      "name": "subsidy_PT",
      "outputs": [
        {
          "internalType": "uint32",
          "name": "",
          "type": "uint32"
        },
        {
          "internalType": "uint32",
          "name": "",
          "type": "uint32"
        },
        {
          "internalType": "uint32",
          "name": "",
          "type": "uint32"
        },
        {
          "internalType": "uint32",
          "name": "",
          "type": "uint32"
        }
      ],
      "stateMutability": "view",
      "type": "function",
      "constant": true
    }
  ],
  "bytecode": "0x6080604052600060015534801561001557600080fd5b50611566806100256000396000f3fe608060405234801561001057600080fd5b506004361061004c5760003560e01c806318a98d3f146100515780638aa4e9b1146100825780639d89af021461009e578063ac4a0dc6146100d1575b600080fd5b61006b60048036038101906100669190610fed565b6100ed565b604051610079929190611155565b60405180910390f35b61009c60048036038101906100979190611050565b610152565b005b6100b860048036038101906100b39190610fed565b61027d565b6040516100c8949392919061117e565b60405180910390f35b6100eb60048036038101906100e69190610f76565b61055c565b005b6000806000806000806000806101058c8c8c8c61062b565b80945081955050506101198c8c8c8c610970565b8092508193505050818461012d9190611318565b9550808361013b9190611318565b945085859750975050505050505094509492505050565b600080600060015481526020019081526020016000209050898160000160006101000a81548160ff021916908360ff160217905550888160000160016101000a81548160ff021916908360ff160217905550878160000160026101000a81548163ffffffff021916908363ffffffff160217905550868160010190805190602001906101df929190610e2c565b50858160020190805190602001906101f8929190610e2c565b508481600301600a6101000a81548161ffff021916908361ffff1602179055508381600301600c6101000a81548160ff021916908360ff1602179055508281600301600d6101000a81548160ff021916908360ff1602179055508181600301600e6101000a81548161ffff021916908361ffff16021790555050505050505050505050565b60008060008060008060008060005b6001548161ffff161015610540576000808261ffff16815260200190815260200160002060000160019054906101000a900460ff1660ff168a60ff16141561052d576000808261ffff168152602001908152602001600020600301600a9054906101000a900461ffff1661ffff168d61ffff16141561052c576000808261ffff168152602001908152602001600020600301600c9054906101000a900460ff1660ff168c60ff16141561052b576000808261ffff16815260200190815260200160002060030160089054906101000a900461ffff1661ffff166000808361ffff16815260200190815260200160002060030160069054906101000a900461ffff1661ffff168561039c919061126f565b6103a69190611318565b93506000808261ffff16815260200190815260200160002060030160049054906101000a900461ffff1661ffff166000808361ffff16815260200190815260200160002060030160029054906101000a900461ffff1661ffff168361040b919061126f565b6104159190611318565b91506000808261ffff16815260200190815260200160002060000160009054906101000a900460ff1660ff168b60ff16141561052a576000808261ffff16815260200190815260200160002060030160089054906101000a900461ffff1661ffff166000808361ffff16815260200190815260200160002060030160069054906101000a900461ffff1661ffff16866104ae919061126f565b6104b89190611318565b94506000808261ffff16815260200190815260200160002060030160049054906101000a900461ffff1661ffff166000808361ffff16815260200190815260200160002060030160029054906101000a900461ffff1661ffff168461051d919061126f565b6105279190611318565b92505b5b5b5b8080610538906113f3565b91505061028c565b5083838383975097509750975050505050945094509450949050565b600080600060015481526020019081526020016000209050858160030160006101000a81548161ffff021916908361ffff160217905550848160030160026101000a81548161ffff021916908361ffff160217905550838160030160046101000a81548161ffff021916908361ffff160217905550828160030160066101000a81548161ffff021916908361ffff160217905550818160030160086101000a81548161ffff021916908361ffff1602179055506001805461061d9190611219565b600181905550505050505050565b60008060008060008060005b6001548161ffff161015610920576000808261ffff16815260200190815260200160002060000160019054906101000a900460ff1660ff168860ff16141561090d576000808261ffff168152602001908152602001600020600301600a9054906101000a900461ffff1661ffff168b61ffff16141561090c5760018a60ff1614156107ff57600b6000808361ffff168152602001908152602001600020600301600c9054906101000a900460ff1660ff16148061071d5750600c6000808361ffff168152602001908152602001600020600301600c9054906101000a900460ff1660ff16145b80610751575060056000808361ffff168152602001908152602001600020600301600c9054906101000a900460ff1660ff16105b156107fa576000808261ffff16815260200190815260200160002060000160029054906101000a900463ffffffff168461078b919061126f565b93506000808261ffff16815260200190815260200160002060000160009054906101000a900460ff1660ff168960ff1614156107f9576000808261ffff16815260200190815260200160002060000160029054906101000a900463ffffffff16856107f6919061126f565b94505b5b61090b565b60046000808361ffff168152602001908152602001600020600301600c9054906101000a900460ff1660ff161180156108615750600b6000808361ffff168152602001908152602001600020600301600c9054906101000a900460ff1660ff16105b1561090a576000808261ffff16815260200190815260200160002060000160029054906101000a900463ffffffff168461089b919061126f565b93506000808261ffff16815260200190815260200160002060000160009054906101000a900460ff1660ff168960ff161415610909576000808261ffff16815260200190815260200160002060000160029054906101000a900463ffffffff1685610906919061126f565b94505b5b5b5b5b8080610918906113f3565b915050610637565b50620f4240615dc08561093391906112da565b61093d91906112a9565b9150620f4240615dc08461095191906112da565b61095b91906112a9565b90508181955095505050505094509492505050565b60008060008060005b6001548161ffff161015610e1a576000808261ffff16815260200190815260200160002060000160019054906101000a900460ff1660ff168660ff161415610e07576000808261ffff168152602001908152602001600020600301600a9054906101000a900461ffff1661ffff168961ffff161415610e065760018860ff161415610c1d57600b6000808361ffff168152602001908152602001600020600301600c9054906101000a900460ff1660ff161480610a5f5750600c6000808361ffff168152602001908152602001600020600301600c9054906101000a900460ff1660ff16145b80610a93575060056000808361ffff168152602001908152602001600020600301600c9054906101000a900460ff1660ff16105b15610c18576000808261ffff16815260200190815260200160002060030160069054906101000a900461ffff1661ffff166000808361ffff16815260200190815260200160002060030160029054906101000a900461ffff1661ffff166000808461ffff16815260200190815260200160002060030160009054906101000a900461ffff1661ffff1684610b27919061126f565b610b31919061126f565b610b3b919061126f565b91506000808261ffff16815260200190815260200160002060000160009054906101000a900460ff1660ff168760ff161415610c17576000808261ffff16815260200190815260200160002060030160069054906101000a900461ffff1661ffff166000808361ffff16815260200190815260200160002060030160029054906101000a900461ffff1661ffff166000808461ffff16815260200190815260200160002060030160009054906101000a900461ffff1661ffff1685610c00919061126f565b610c0a919061126f565b610c14919061126f565b92505b5b610e05565b60046000808361ffff168152602001908152602001600020600301600c9054906101000a900460ff1660ff16118015610c7f5750600b6000808361ffff168152602001908152602001600020600301600c9054906101000a900460ff1660ff16105b15610e04576000808261ffff16815260200190815260200160002060030160069054906101000a900461ffff1661ffff166000808361ffff16815260200190815260200160002060030160029054906101000a900461ffff1661ffff166000808461ffff16815260200190815260200160002060030160009054906101000a900461ffff1661ffff1684610d13919061126f565b610d1d919061126f565b610d27919061126f565b91506000808261ffff16815260200190815260200160002060000160009054906101000a900460ff1660ff168760ff161415610e03576000808261ffff16815260200190815260200160002060030160069054906101000a900461ffff1661ffff166000808361ffff16815260200190815260200160002060030160029054906101000a900461ffff1661ffff166000808461ffff16815260200190815260200160002060030160009054906101000a900461ffff1661ffff1685610dec919061126f565b610df6919061126f565b610e00919061126f565b92505b5b5b5b5b8080610e12906113f3565b915050610979565b50818193509350505094509492505050565b828054610e3890611390565b90600052602060002090601f016020900481019282610e5a5760008555610ea1565b82601f10610e7357805160ff1916838001178555610ea1565b82800160010185558215610ea1579182015b82811115610ea0578251825591602001919060010190610e85565b5b509050610eae9190610eb2565b5090565b5b80821115610ecb576000816000905550600101610eb3565b5090565b6000610ee2610edd846111e8565b6111c3565b905082815260208101848484011115610efa57600080fd5b610f05848285611381565b509392505050565b600082601f830112610f1e57600080fd5b8135610f2e848260208601610ecf565b91505092915050565b600081359050610f46816114eb565b92915050565b600081359050610f5b81611502565b92915050565b600081359050610f7081611519565b92915050565b600080600080600060a08688031215610f8e57600080fd5b6000610f9c88828901610f37565b9550506020610fad88828901610f37565b9450506040610fbe88828901610f37565b9350506060610fcf88828901610f37565b9250506080610fe088828901610f37565b9150509295509295909350565b6000806000806080858703121561100357600080fd5b600061101187828801610f37565b945050602061102287828801610f61565b935050604061103387828801610f61565b925050606061104487828801610f61565b91505092959194509250565b60008060008060008060008060006101208a8c03121561106f57600080fd5b600061107d8c828d01610f61565b995050602061108e8c828d01610f61565b985050604061109f8c828d01610f4c565b97505060608a013567ffffffffffffffff8111156110bc57600080fd5b6110c88c828d01610f0d565b96505060808a013567ffffffffffffffff8111156110e557600080fd5b6110f18c828d01610f0d565b95505060a06111028c828d01610f37565b94505060c06111138c828d01610f61565b93505060e06111248c828d01610f61565b9250506101006111368c828d01610f37565b9150509295985092959850929598565b61114f81611364565b82525050565b600060408201905061116a6000830185611146565b6111776020830184611146565b9392505050565b60006080820190506111936000830187611146565b6111a06020830186611146565b6111ad6040830185611146565b6111ba6060830184611146565b95945050505050565b60006111cd6111de565b90506111d982826113c2565b919050565b6000604051905090565b600067ffffffffffffffff821115611203576112026114ab565b5b61120c826114da565b9050602081019050919050565b60006112248261135a565b915061122f8361135a565b9250827fffffffffffffffffffffffffffffffffffffffffffffffffffffffffffffffff038211156112645761126361141e565b5b828201905092915050565b600061127a82611364565b915061128583611364565b92508263ffffffff0382111561129e5761129d61141e565b5b828201905092915050565b60006112b482611364565b91506112bf83611364565b9250826112cf576112ce61144d565b5b828204905092915050565b60006112e582611364565b91506112f083611364565b92508163ffffffff048311821515161561130d5761130c61141e565b5b828202905092915050565b600061132382611364565b915061132e83611364565b9250828210156113415761134061141e565b5b828203905092915050565b600061ffff82169050919050565b6000819050919050565b600063ffffffff82169050919050565b600060ff82169050919050565b82818337600083830152505050565b600060028204905060018216806113a857607f821691505b602082108114156113bc576113bb61147c565b5b50919050565b6113cb826114da565b810181811067ffffffffffffffff821117156113ea576113e96114ab565b5b80604052505050565b60006113fe8261134c565b915061ffff8214156114135761141261141e565b5b600182019050919050565b7f4e487b7100000000000000000000000000000000000000000000000000000000600052601160045260246000fd5b7f4e487b7100000000000000000000000000000000000000000000000000000000600052601260045260246000fd5b7f4e487b7100000000000000000000000000000000000000000000000000000000600052602260045260246000fd5b7f4e487b7100000000000000000000000000000000000000000000000000000000600052604160045260246000fd5b6000601f19601f8301169050919050565b6114f48161134c565b81146114ff57600080fd5b50565b61150b81611364565b811461151657600080fd5b50565b61152281611374565b811461152d57600080fd5b5056fea26469706673582212203ad05670163f7ac44cef6f9dcf9ef826b7608885dc2954b44a907dc170d17f3a64736f6c63430008010033",
  "immutableReferences": {},
  "source": "// SPDX-License-Identifier: MIT\r\npragma solidity >=0.8.0 <0.9.0;\r\npragma abicoder v2;\r\n//import \"./Ownable.sol\";\r\n\r\n//block.timestamp\r\n//2010\r\n\r\n///////////////////////\r\n//0908\r\n//0909\r\n//0912\r\n//0912\r\n\r\n\r\n//////////////////////\r\n//\r\n\r\n\r\n///////////////////\r\n\r\n\r\n///////////////////////////////\r\n///\r\n\r\n\r\n/////////bug////////////\r\n\r\n\r\n\r\ncontract subsidy{\r\n    struct operate_in{   //\r\n        uint8 _number;  //\r\n        uint8 _operator;  //\r\n        uint32 _mileage;  // //1000\r\n        string _plate; //\r\n        string _driver; //        \r\n        uint16 _normal;  // //1->()2->3->\r\n        uint16 _elder;    //\r\n        uint16 _elder_actual; //\r\n        uint16 _disable;    //\r\n        uint16 _disable_actual; //\r\n        uint16 _year;    //   \r\n        uint8 _month;  //\r\n        uint8 _day;   //\r\n        uint16 _time; //\r\n    }\r\n\r\n    mapping (uint => operate_in) map_operate_in;\r\n    uint count_operate=0; //\r\n\r\n    function operate(uint8 _number, uint8 _operator, uint32 _mileage, string memory _plate, string memory _driver, uint16 _year, uint8 _month, uint8 _day, uint16 _time) public {  //\r\n        operate_in storage c = map_operate_in[count_operate];  //slide\r\n        c._number=_number;\r\n        c._operator=_operator;\r\n        c._mileage=_mileage;\r\n        c._plate=_plate;\r\n        c._driver=_driver;     \r\n        c._year=_year;\r\n        c._month=_month;\r\n        c._day=_day;\r\n        c._time=_time;\r\n    }\r\n    function passenger(uint16 _normal, uint16 _elder, uint16 _elder_actual, uint16 _disable, uint16 _disable_actual) public {  //\r\n        operate_in storage c = map_operate_in[count_operate];  //slide\r\n        c._normal=_normal;\r\n        c._elder=_elder;\r\n        c._elder_actual=_elder_actual;\r\n        c._disable=_disable;\r\n        c._disable_actual=_disable_actual;  \r\n        count_operate=count_operate+1;\r\n    }\r\n\r\n    function subsidy_motc(uint16 year, uint8 season, uint8 number, uint8 operator) public view returns(uint32, uint32){ //\r\n        uint32 subsidys=0;   //\r\n        uint32 total_subsidy=0; //\r\n        uint32 cost=0; //\r\n        uint32 total_cost=0; //\r\n        uint32 revenue=0; //\r\n        uint32 total_revenue=0; //       \r\n        (cost, total_cost)=subsidy_motc_cost(year, season, number, operator);\r\n        (revenue, total_revenue)=subsidy_motc_revenue(year, season, number, operator);\r\n        subsidys=cost-revenue;\r\n        total_subsidy=total_cost-total_revenue;\r\n        return(subsidys,total_subsidy);    \r\n    }    \r\n\r\n    function subsidy_motc_cost(uint16 year, uint8 season, uint8 number, uint8 operator) internal view returns(uint32, uint32){ //\r\n        //yearseasonornumberoperator\r\n        uint32 mileage=0; //(*1000)\r\n        uint32 total_mileage=0; //(*1000)\r\n        uint32 cost=0; //\r\n        uint32 total_cost=0; //\r\n        for(uint16 i=0; i<count_operate; i++){  //()\r\n            if(operator==map_operate_in[i]._operator){ //\r\n                if(year==map_operate_in[i]._year){ //\r\n                    if(season==1){//\r\n                        if(map_operate_in[i]._month==11||map_operate_in[i]._month==12||map_operate_in[i]._month<5){\r\n                            total_mileage=total_mileage+map_operate_in[i]._mileage;//\r\n                            if(number==map_operate_in[i]._number)//\r\n                                mileage=mileage+map_operate_in[i]._mileage; //*()\r\n                        }\r\n                    }\r\n                    else{//\r\n                        if(map_operate_in[i]._month>4&&map_operate_in[i]._month<11){\r\n                            total_mileage=total_mileage+map_operate_in[i]._mileage;//\r\n                            if(number==map_operate_in[i]._number)//\r\n                                mileage=mileage+map_operate_in[i]._mileage; //*()\r\n                        }\r\n                    }\r\n                }\r\n            }\r\n        }\r\n        cost=(mileage*24000)/1000000;//24 //1000000:\r\n        total_cost=(total_mileage*24000)/1000000;\r\n        return(cost, total_cost);\r\n    }\r\n\r\n    function subsidy_motc_revenue(uint16 year, uint8 season, uint8 number, uint8 operator) internal view returns(uint32, uint32){ //\r\n        uint32 revenue=0; //\r\n        uint32 total_revenue=0; //\r\n        for(uint16 j=0; j<count_operate; j++){//\r\n            if(operator==map_operate_in[j]._operator){ //\r\n                if(year==map_operate_in[j]._year){ //\r\n                    if(season==1){//\r\n                        if(map_operate_in[j]._month==11||map_operate_in[j]._month==12||map_operate_in[j]._month<5){\r\n                            total_revenue=total_revenue+map_operate_in[j]._normal+map_operate_in[j]._elder+map_operate_in[j]._disable;//\r\n                            if(number==map_operate_in[j]._number)\r\n                                revenue=revenue+map_operate_in[j]._normal+map_operate_in[j]._elder+map_operate_in[j]._disable;//\r\n                        }\r\n                    }\r\n                    else{   //\r\n                        if(map_operate_in[j]._month>4&&map_operate_in[j]._month<11){\r\n                            total_revenue=total_revenue+map_operate_in[j]._normal+map_operate_in[j]._elder+map_operate_in[j]._disable;//\r\n                            if(number==map_operate_in[j]._number)\r\n                                revenue=revenue+map_operate_in[j]._normal+map_operate_in[j]._elder+map_operate_in[j]._disable;//\r\n                        }\r\n                    }\r\n                }\r\n            }\r\n        }\r\n        return(revenue, total_revenue);\r\n    }\r\n\r\n    function subsidy_PT(uint16 year, uint8 month, uint8 number, uint8 operator) public view returns(uint32, uint32, uint32, uint32){\r\n        //what:\r\n        uint32 disable_subsidy; //\r\n        uint32 disable_total_subsidy;   //\r\n        uint32 elder_subsidy; //\r\n        uint32 elder_total_subsidy;   //\r\n        for(uint16 j=0; j<count_operate; j++){//\r\n            if(operator==map_operate_in[j]._operator){ //\r\n                if(year==map_operate_in[j]._year){ //\r\n                    if(month==map_operate_in[j]._month){    //\r\n                        disable_total_subsidy=disable_total_subsidy+map_operate_in[j]._disable-map_operate_in[j]._disable_actual;  //\r\n                        elder_total_subsidy=elder_total_subsidy+map_operate_in[j]._elder-map_operate_in[j]._elder_actual;  //\r\n                        if(number==map_operate_in[j]._number){\r\n                            disable_subsidy=disable_subsidy+map_operate_in[j]._disable-map_operate_in[j]._disable_actual;  //\r\n                            elder_subsidy=elder_subsidy+map_operate_in[j]._elder-map_operate_in[j]._elder_actual;  //                          \r\n                        }\r\n                    }\r\n                }\r\n            }\r\n        }\r\n        return(disable_subsidy, disable_total_subsidy, elder_subsidy, elder_total_subsidy);\r\n    }\r\n}",
  "sourcePath": "D:/truffle/subsidy0913/contracts/Subsidy.sol",
  "compiler": {
    "name": "solc",
    "version": "0.8.1+commit.df193b15.Emscripten.clang"
  },
  "schemaVersion": "3.4.1",
  "updatedAt": "2021-09-13T06:37:26.079Z",
  "networkType": "ethereum",
  "devdoc": {
    "kind": "dev",
    "methods": {},
    "version": 1
  },
  "userdoc": {
    "kind": "user",
    "methods": {},
    "version": 1
  }
}